S015000044697374616E636520746573742E7372656304
S11300000C9434000C9451000C948F010C94510006
S11300100C9451000C9451000C9451000C94510018
S11300200C9451000C9451000C9451000C94510008
S11300300C9451000C9451000C9451000C945100F8
S11300400C9451000C9451000C9451000C945100E8
S11300500C9451000C9451000C9451000C945100D8
S11300600C9451000C94510011241FBECFEFD8E022
S1130070DEBFCDBF11E0A0E0B1E0E0ECF3E002C0F0
S113008005900D92AA30B107D9F721E0AAE0B1E0BA
S113009001C01D92AD30B207E1F70E945B010C94E0
S11300A0DE010C94000061110EC045B121E030E086
S11300B0B90102C0660F771F8A95E2F7CB018095DC
S11300C0842385B9089545B121E030E0B90102C027
S11300D0660F771F8A95E2F7CB01842B85B90895C3
S11300E0CF93DF93D82FC8E060E081E00E945300F3
S11300F06D2F617080E00E945300D69561E081E02D
S11301000E945300C15081F7DF91CF910895EF927F
S1130110FF920F931F93CF93DF93CDB7DEB7629710
S11301200FB6F894DEBF0FBECDBFAC018AE0E0E0AD
S1130130F1E0DE01119601900D928A95E1F7FE013E
S11301403B9688E0DF011D928A95E9F74115510538
S113015089F17F01E0E09A01ADECBCEC0E94CF0193
S11301609695879596958795969587959C01220FE8
S1130170331F880F991F880F991F880F991F820FAB
S1130180931F9A01281B390BD7012D937D019A01E6
S1130190ADECBCEC0E94CF01AC0156954795569549
S11301A0479556954795EF5F4115510521F0E83085
S11301B091F601C0E0E008E00E1BFE0173969E017B
S11301C0255F3F4F79012C5F3F4FD7018C9192916E
S11301D09D938083E217F307C9F760E082E00E94F1
S11301E0530080EC0E94700010E0101720F480E0AF
S11301F00E9470000BC0D7018C91E1E0F0E0EC0F9D
S1130200FD1FE80FF11D80810E94700080E00E94B4
S113021070001F5FBFEFEB1AFB0A183031F761E083
S113022082E00E94530062960FB6F894DEBF0FBEC0
S1130230CDBFDF91CF911F910F91FF90EF90089563
S1130240CF93C82F60E082E00E9453008C2F0E945D
S1130250700061E082E00E945300CF910895CF9333
S113026080E40E94200160E082E00E94530080EC60
S11302700E947000C0E180E00E947000C150D9F774
S113028061E082E00E94530089E80E942001CF913E
S1130290089581E08AB987EF8AB98FEF84B9089508
S11302A01092800010928100089584E08093690088
S11302B082E08DBB08950E9449010E9450010E9472
S11302C02F010E945501789411E0C0EAD3E0109305
S11302D00A01589A20E42A95F1F71BB88FEF96E7A4
S11302E021E0815090402040E1F700C0000080915F
S11302F00B0190910C0180910B0190910C01BE01B6
S11303000E94BB01CB010E9487008FEF99E628E190
S1130310815090402040E1F700C00000D8CF1F92E8
S11303200F920FB60F9211248F939F93EF93FF9325
S113033080910A01813061F410928500109284004A
S1130340E1E8F0E080818160808310920A010AC0B4
S113035010928100809184009091850090930C010B
S113036080930B01FF91EF919F918F910F900FBE9E
S11303700F901F901895AA1BBB1B51E107C0AA1F21
S1130380BB1FA617B70710F0A61BB70B881F991F32
S11303905A95A9F780959095BC01CD010895A29F27
S11303A0B001B39FC001A39F700D811D1124911D45
S11303B0B29F700D811D1124911D0895F894FFCFF3
S10D03C03F065B4F666D7D077F6FFB
S9030000FC
