S0150000546573742050686F746F63656C2E7372656311
S11300000C9434000C9449000C9449000C9449005D
S11300100C9449000C9449000C9449000C94490038
S11300200C9449000C9449000C9449000C94490028
S11300300C9449000C9449000C9449000C94490018
S11300400C9449000C9449000C9449000C94490008
S11300500C9449000C9449000C9449000C944900F8
S11300600C9449000C94490011241FBECFEFD8E032
S1130070DEBFCDBF11E0A0E0B1E0E0EEF1E002C0F0
S113008005900D92A430B107D9F70E94AA000C94F0
S1130090EE000C94000080E680937C0087E8809357
S11300A07A000895EAE7F0E08081806480838081AB
S11300B086FDFDCF8091790008951092C50083E3F9
S11300C08093C4001092C00088E08093C10086E051
S11300D08093C2000895E0ECF0E0908195FFFDCF9D
S11300E08093C6000895CF93DF93EC018881882321
S11300F031F021960E946B0089918111FBCFDF9131
S1130100CF910895CF93DF93CDB7DEB728970FB67D
S1130110F894DEBF0FBECDBF0E945D0080E091E089
S11301200E9473000E9452004AE050E0BE016F5FDB
S11301307F4F90E00E94AE00CE0101960E947300B2
S11301402FEF8BE792E9215080409040E1F700C007
S11301500000E4CF0E944B000E948200453251050A
S113016020F4423010F00C94B900FB011082CB0152
S11301700895BB274A3031F4992322F4BDE29095C7
S113018081959F4F0C94C500BB27FB015527AA27D7
S1130190880F991FAA1FA41710F0A41B8395505110
S11301A0B9F7A05DAA3308F0A95DA193009779F788
S11301B0B111B1931192CB010C94DE00DC01FC016E
S11301C0672F71917723E1F7329704C07C916D9387
S11301D070836291AE17BF07C8F30895F894FFCFF8
S10701E0442C0000A7
S9030000FC
