:100000000C9434000C9451000C9451000C94510049
:100010000C9451000C9451000C9451000C9451001C
:100020000C9451000C9451000C9451000C9451000C
:100030000C9451000C9451000C9451000C945100FC
:100040000C9451000C9451000C9451000C945100EC
:100050000C9451000C9451000C9451000C945100DC
:100060000C9451000C94510011241FBECFEFD8E026
:10007000DEBFCDBF11E0A0E0B1E0E0E6F2E002C0FB
:1000800005900D92A630B107D9F721E0A6E0B1E0C6
:1000900001C01D92A830B207E1F70E94E8000C945D
:1000A0002E010C940000529A089580E680937C0003
:1000B00087E880937A000895EAE7F0E08081806421
:1000C0008083808186FDFDCF809179000895109214
:1000D000C50083E38093C4001092C00088E1809340
:1000E000C10086E08093C2000895E0ECF0E09081CA
:1000F00095FFFDCF8093C6000895CF93DF93EC0169
:100100008881882331F021960E94750089918111A0
:10011000FBCFDF91CF910895209106013091070127
:10012000809100019091010182179307B4F45A9ACB
:100130002FEF83ED90E3215080409040E1F700C025
:1001400000005A982091060130910701809100012A
:10015000909101018217930754F30895CF93DF9391
:10016000CDB7DEB72A970FB6F894DEBF0FBECDBF6E
:100170000E94670082E091E00E947D000E945C0086
:10018000282F30E0C901880F991F220F331F220F3B
:10019000331F220F331F820F931F90930701809309
:1001A00006014AE050E0BE016F5F7F4F0E94EE0003
:1001B000CE0101960E947D000E948C002FEF83EDFE
:1001C00090E3215080409040E1F700C00000D2CF82
:1001D0000E9453000E9455000E94AE004532510516
:1001E00020F4423010F00C94F900FB011082CB0196
:1001F0000895BB274A3031F4992322F4BDE290954B
:1002000081959F4F0C940501BB27FB015527AA2719
:10021000880F991FAA1FA41710F0A41B8395505193
:10022000B9F7A05DAA3308F0A95DA193009779F70B
:10023000B111B1931192CB010C941E01DC01FC01B0
:10024000672F71917723E1F7329704C07C916D930A
:1002500070836291AE17BF07C8F30895F894FFCF7B
:06026000B004442C000074
:00000001FF
