:100000000C9434000C9451000C9451000C94510049
:100010000C9451000C9451000C9451000C9451001C
:100020000C9451000C9451000C9451000C94D2008B
:100030000C9451000C9451000C9451000C945100FC
:100040000C9451000C9451000C9451000C945100EC
:100050000C9451000C9451000C9451000C945100DC
:100060000C9451000C94510011241FBECFEFD8E026
:10007000DEBFCDBF11E0A0E0B1E0E4E6F6E002C0F3
:1000800005900D92A830B107D9F721E0A8E0B1E0C2
:1000900001C01D92AD32B207E1F70E9485010C94B8
:1000A00030030C9400000F931F93CF93DF938C01C8
:1000B00080910A0190910B01892B81F0EAE0F1E037
:1000C00021E030E0822FE901A781B0852F5F3F4F0B
:1000D0003796AB2BB9F7853021F415C0C0E0D0E0DE
:1000E00080E0FE01EE0FFF1FEE0FFF1FEE0FFF1F60
:1000F000EC1BFD0BE65FFE4F11830083738362836D
:10010000558344831682DF91CF911F910F910895FB
:1001100027E0829FC0011124FC01E65FFE4F11829F
:1001200010821382128215821482168280E0089552
:10013000EF92FF921F93CF93DF93CAE0D1E010E0DC
:100140008E81882379F0E881F981309759F00995FB
:100150008E8181508E838C819D81892B19F4812F12
:100160000E9488001F5F2796153051F7DF91CF91CD
:100170001F91FF90EF900895CF93C0E08C2F0E94C5
:100180008800CF5FC530D1F781E792E09093890076
:10019000809388008CE08093810082E080936F00E0
:1001A000CF9108951F920F920FB60F9211242F93A3
:1001B0003F938F939F93AF93BF93EF93FF93EAE0A7
:1001C000F1E02DE231E080819181892B91F08281F3
:1001D0009381009759F486818F5F8683848195810E
:1001E000009739F001979383828303C0019793832B
:1001F00082833796E217F30731F7FF91EF91BF91B2
:10020000AF919F918F913F912F910F900FBE0F90C3
:100210001F90189580E680937C0087E880937A0091
:100220000895EAE7F0E0808180648083808186FD24
:10023000FDCF8091790008951092C50083E38093EB
:10024000C4001092C00088E18093C10086E08093D2
:10025000C2000895E0ECF0E0908195FFFDCF80931F
:10026000C6000895CF93DF93EC018881882331F095
:1002700021960E942A0189918111FBCFDF91CF91B4
:100280000895CF93DF93CDB7DEB72A970FB6F894D2
:10029000DEBF0FBECDBF80E091E00E9432010E9420
:1002A0001101682F70E07093090160930801072E17
:1002B000000C880B990B0E94CF0120E030E040E851
:1002C0005AE30E94330220E030E44CE955E40E94F6
:1002D00033020E949701CB016AE070E00E94C802DD
:1002E000CB014AE050E0BE016F5F7F4F0E94F002F9
:1002F000CE0101960E9432012A960FB6F894DEBF15
:100300000FBECDBFDF91CF9108950E941C010E94C6
:100310000A010E94BC000E94410140E050E064EFED
:1003200071E00E94530078940E949800FDCF0E94D3
:100330009E016894B1110C942D0208950E9412023E
:1003400088F09F5798F0B92F9927B751B0F0E1F096
:10035000660F771F881F991F1AF0BA95C9F714C046
:10036000B13091F00E942C02B1E008950C942C025F
:10037000672F782F8827B85F39F0B93FCCF386957F
:1003800077956795B395D9F73EF4909580957095DC
:1003900061957F4F8F4F9F4F0895E89409C097FB59
:1003A0003EF490958095709561957F4F8F4F9F4F4C
:1003B0009923A9F0F92F96E9BB279395F695879590
:1003C00077956795B795F111F8CFFAF4BB0F11F453
:1003D00060FF1BC06F5F7F4F8F4F9F4F16C08823FA
:1003E00011F096E911C0772321F09EE8872F762F30
:1003F00005C0662371F096E8862F70E060E02AF071
:100400009A95660F771F881FDAF7880F969587955C
:1004100097F9089557FD9058440F551F59F05F3FC5
:1004200071F04795880F97FB991F61F09F3F79F016
:1004300087950895121613061406551FF2CF469598
:10044000F1DF08C0161617061806991FF1CF86951A
:100450007105610508940895E894BB2766277727FE
:10046000CB0197F908950E9446020C94B7020E94AE
:10047000A90238F00E94B00220F0952311F00C94EC
:10048000A0020C94A60211240C942D020E940A02D0
:1004900070F3959FC1F3950F50E0551F629FF001D7
:1004A000729FBB27F00DB11D639FAA27F00DB11DF0
:1004B000AA1F649F6627B00DA11D661F829F222779
:1004C000B00DA11D621F739FB00DA11D621F839F00
:1004D000A00D611D221F749F3327A00D611D231FD6
:1004E000849F600D211D822F762F6A2F11249F5724
:1004F00050409AF0F1F088234AF0EE0FFF1FBB1F27
:10050000661F771F881F91505040A9F79E3F5105E5
:1005100080F00C94A0020C942D025F3FE4F3983E0F
:10052000D4F3869577956795B795F795E7959F5F8F
:10053000C1F7FE2B880F911D9695879597F9089521
:1005400097F99F6780E870E060E008959FEF80EC86
:10055000089500240A941616170618060906089529
:1005600000240A9412161306140605060895092E8F
:100570000394000C11F4882352F0BB0F40F4BF2BFE
:1005800011F460FF04C06F5F7F4F8F4F9F4F08953E
:1005900097FB072E16F4009407D077FD09D00E9430
:1005A000DC0207FC05D03EF4909581959F4F08959D
:1005B000709561957F4F0895AA1BBB1B51E107C041
:1005C000AA1FBB1FA617B70710F0A61BB70B881FE3
:1005D000991F5A95A9F780959095BC01CD01089572
:1005E0004532510520F4423010F00C94FB02FB011F
:1005F0001082CB010895BB274A3031F4992322F4AD
:10060000BDE2909581959F4F0C940703BB27FB019A
:100610005527AA27880F991FAA1FA41710F0A41BFB
:1006200083955051B9F7A05DAA3308F0A95DA19355
:10063000009779F7B111B1931192CB010C9420037B
:10064000DC01FC01672F71917723E1F7329704C039
:100650007C916D9370836291AE17BF07C8F30895C4
:04066000F894FFCF3C
:0806640054656D703A2000009E
:00000001FF
