:100000000C9434000C9451000C9451000C94510049
:100010000C9451000C9451000C9451000C9451001C
:100020000C9451000C9451000C9451000C94F40069
:100030000C9451000C9451000C9451000C945100FC
:100040000C9451000C9451000C9451000C945100EC
:100050000C9451000C9451000C9451000C945100DC
:100060000C9451000C94510011241FBECFEFD8E026
:10007000DEBFCDBF11E0A0E0B1E0E2E9FDE002C0EB
:1000800005900D92A831B107D9F721E0A8E1B1E0C0
:1000900001C01D92A134B207E1F70E943C020C940A
:1000A000C7060C940000209100013091010180915D
:1000B00002019091030182179307B4F4209100018B
:1000C00030910101809104019091050128173907B1
:1000D0005CF45C9A2FEF83EC99E0215080409040D3
:1000E000E1F700C000005C9808950F931F93CF9331
:1000F000DF938C0180911E0190911F01892B81F06B
:10010000EEE1F1E021E030E0822FE901A781B08546
:100110002F5F3F4F3796AB2BB9F7853021F415C0D1
:10012000C0E0D0E080E0FE01EE0FFF1FEE0FFF1FEA
:10013000EE0FFF1FEC1BFD0BE25EFE4F11830083F1
:1001400073836283558344831682DF91CF911F911D
:100150000F91089527E0829FC0011124FC01E25E07
:10016000FE4F11821082138212821582148216822F
:1001700080E00895EF92FF921F93CF93DF93CEE13B
:10018000D1E010E08E81882379F0E881F981309701
:1001900059F009958E8181508E838C819D81892BA8
:1001A00019F4812F0E94AA001F5F2796153051F77E
:1001B000DF91CF911F91FF90EF900895CF93C0E012
:1001C0008C2F0E94AA00CF5FC530D1F781E792E063
:1001D00090938900809388008CE08093810082E076
:1001E00080936F00CF9108951F920F920FB60F92D8
:1001F00011242F933F938F939F93AF93BF93EF93CC
:10020000FF93EEE1F1E021E431E080819181892BDF
:1002100091F082819381009759F486818F5F868364
:1002200084819581009739F001979383828303C07D
:100230000197938382833796E217F30731F7FF9193
:10024000EF91BF91AF919F918F913F912F910F901F
:100250000FBE0F901F901895539A549A559A08956F
:1002600080E680937C0087E880937A00089581E699
:1002700080937C0087E880937A000895EAE7F0E0B5
:10028000808180648083808186FDFDCF80917900AC
:1002900008951092C50083E38093C40088E18093A1
:1002A000C10086E08093C2000895E0ECF0E0908108
:1002B00095FFFDCF8093C6000895CF93DF93EC01A7
:1002C0008881882331F021960E94550189918111FE
:1002D000FBCFDF91CF910895CF93DF93CDB7DEB7FA
:1002E0002A970FB6F894DEBF0FBECDBF0E94300133
:1002F00081E191E00E945D010E943E01682F70E063
:1003000070931D0160931C01072E000C880B990B44
:100310000E949E0220E030E040E85AE30E9402037F
:1003200020E030E44CE955E40E9402030E9466029A
:10033000CB016AE070E00E949703CB017093190132
:10034000609318014AE050E0BE016F5F7F4F0E944A
:10035000BF03CE0101960E945D0184E191E00E94FD
:100360005D012A960FB6F894DEBF0FBECDBFDF91B8
:10037000CF910895CF93DF93CDB7DEB72A970FB60D
:10038000F894DEBF0FBECDBF0E9437018EE091E032
:100390000E945D010E943E0190E090931B018093BA
:1003A0001A014AE050E0BE016F5F7F4F0E94BF0319
:1003B000CE0101960E945D0184E191E00E945D0101
:1003C0002A960FB6F894DEBF0FBECDBFDF91CF9156
:1003D000089520911A0130911B018091080190919C
:1003E000090182179307F4F4209100013091010173
:1003F0008091020190910301281739079CF05B9AC4
:100400005D9880910001909101010A9790930101FC
:10041000809300018AE091E00E945D0184E191E017
:100420000E945D0120911A0130911B01809106010B
:100430009091070128173907F4F4209100013091B9
:1004400001018091040190910501821793079CF0AE
:100450005D9A5B9880910001909101010A969093BA
:100460000101809300018CE091E00E945D0184E134
:1004700091E00E945D0108950E942C010E944901B3
:100480000E94DE0044E650E060E070E089EE91E01A
:100490000E94750048EE53E060E070E08CE691E069
:1004A0000E9475004CE454E060E070E08AEB91E05B
:1004B0000E94750042E350E060E070E083E590E068
:1004C0000E94750078940E94BA00FDCF0E946D02D0
:1004D0006894B1110C94FC0208950E94E10288F026
:1004E0009F5798F0B92F9927B751B0F0E1F0660FF8
:1004F000771F881F991F1AF0BA95C9F714C0B13039
:1005000091F00E94FB02B1E008950C94FB02672F6A
:10051000782F8827B85F39F0B93FCCF38695779567
:100520006795B395D9F73EF4909580957095619550
:100530007F4F8F4F9F4F0895E89409C097FB3EF47B
:1005400090958095709561957F4F8F4F9F4F992320
:10055000A9F0F92F96E9BB279395F695879577959E
:100560006795B795F111F8CFFAF4BB0F11F460FF5E
:100570001BC06F5F7F4F8F4F9F4F16C0882311F0B6
:1005800096E911C0772321F09EE8872F762F05C0CA
:10059000662371F096E8862F70E060E02AF09A9565
:1005A000660F771F881FDAF7880F9695879597F95A
:1005B000089557FD9058440F551F59F05F3F71F053
:1005C0004795880F97FB991F61F09F3F79F08795BA
:1005D0000895121613061406551FF2CF4695F1DF43
:1005E00008C0161617061806991FF1CF86957105D3
:1005F000610508940895E894BB2766277727CB0107
:1006000097F908950E9415030C9486030E947803BD
:1006100038F00E947F0320F0952311F00C946F03B3
:100620000C94750311240C94FC020E94D90270F3FF
:10063000959FC1F3950F50E0551F629FF001729F87
:10064000BB27F00DB11D639FAA27F00DB11DAA1F96
:10065000649F6627B00DA11D661F829F2227B00DE3
:10066000A11D621F739FB00DA11D621F839FA00D6E
:10067000611D221F749F3327A00D611D231F849FBE
:10068000600D211D822F762F6A2F11249F57504015
:100690009AF0F1F088234AF0EE0FFF1FBB1F661F90
:1006A000771F881F91505040A9F79E3F510580F059
:1006B0000C946F030C94FC025F3FE4F3983ED4F378
:1006C000869577956795B795F795E7959F5FC1F7FD
:1006D000FE2B880F911D9695879597F9089597F9A8
:1006E0009F6780E870E060E008959FEF80EC0895D8
:1006F00000240A9416161706180609060895002401
:100700000A9412161306140605060895092E03947A
:10071000000C11F4882352F0BB0F40F4BF2B11F4EE
:1007200060FF04C06F5F7F4F8F4F9F4F089597FB0F
:10073000072E16F4009407D077FD09D00E94AB0372
:1007400007FC05D03EF4909581959F4F08957095D4
:1007500061957F4F0895AA1BBB1B51E107C0AA1FDB
:10076000BB1FA617B70710F0A61BB70B881F991F52
:100770005A95A9F780959095BC01CD010895453211
:10078000510520F4423010F00C94CA03FB01108292
:10079000CB010895BB274A3031F4992322F4BDE2FE
:1007A000909581959F4F0C94D603BB27FB0155274D
:1007B000AA27880F991FAA1FA41710F0A41B8395BE
:1007C0005051B9F7A05DAA3308F0A95DA193009735
:1007D00079F7B111B1931192CB010C94E605ABE01E
:1007E000B0E0E5EFF3E00C9490066C017B018A0128
:1007F000FC0117821682838181FFCCC1CE01019654
:100800003C01F6019381F70193FD859193FF81915E
:100810007F01882309F4BAC1853239F493FD8591AB
:1008200093FF81917F01853229F4B60190E00E9407
:10083000F605E7CF912C212C312CFFE1F315D8F0F0
:100840008B3279F038F4803279F08332A1F4232DA1
:1008500020611DC08D3261F0803369F4232D216049
:1008600016C0832D8260382EE32DE4603E2E2AC010
:10087000F32DF8601DC037FC2DC020ED280F2A3065
:1008800040F08E32B9F436FC81C1232D2064322E23
:1008900019C036FE06C08AE0989E200D1124922EC3
:1008A00011C0EAE02E9E200D1124222EF32DF062BD
:1008B0003F2E08C08C3621F4832D8068382E02C06C
:1008C000883641F4F70193FD859193FF81917F0173
:1008D0008111B3CF982F9F7D9554933028F40C5FEE
:1008E0001F4F9FE399830DC0833631F0833771F03A
:1008F000833509F059C021C0F801808189830E5FDA
:100900001F4F88248394912C530113C02801F2E0D7
:100910004F0E511CF801A080B18036FE03C0692D36
:1009200070E002C06FEF7FEFC5010E94DB054C0154
:100930008201F32DFF773F2E16C0280122E0420EE0
:10094000511CF801A080B18036FE03C0692D70E013
:1009500002C06FEF7FEFC5010E94D0054C01F32D5F
:10096000F0683F2E820133FC1BC0822D90E0881678
:100970009906B0F4B60180E290E00E94F6052A9450
:10098000F4CFF50137FC859137FE81915F01B60107
:1009900090E00E94F60521102A9421E0821A910825
:1009A0008114910471F7E8C0843611F0893641F55D
:1009B000F80137FE07C060817181828193810C5FED
:1009C0001F4F08C060817181072E000C880B990BA6
:1009D0000E5F1F4FF32DFF763F2E97FF09C09095B6
:1009E0008095709561957F4F8F4F9F4FF0683F2E98
:1009F0002AE030E0A3010E943206882E861845C006
:100A0000853731F4232D2F7EB22E2AE030E025C029
:100A1000932D997FB92E8F36C1F018F4883579F06F
:100A2000B5C0803719F0883721F0B0C0E92FE061F8
:100A3000BE2EB4FE0DC0FB2DF460BF2E09C034FEE7
:100A40000AC0292F2660B22E06C028E030E005C07B
:100A500020E130E002C020E132E0F801B7FE07C03B
:100A600060817181828193810C5F1F4F06C060811C
:100A7000718180E090E00E5F1F4FA3010E9432065B
:100A8000882E8618FB2DFF773F2E36FE0DC0232DB6
:100A90002E7FA22E891458F434FE0BC032FC09C0FC
:100AA000832D8E7EA82E05C0B82CA32C03C0B82C95
:100AB00001C0B92CA4FE0FC0FE01E80DF11D80811C
:100AC000803321F49A2D997EA92E09C0A2FE06C07A
:100AD000B394B39404C08A2D867809F0B394A3FC30
:100AE00011C0A0FE06C0B21488F4280C922C9B18EA
:100AF0000EC0B21460F4B60180E290E00E94F605E8
:100B0000B394F7CFB21418F42B1802C0982C212CF0
:100B1000A4FE10C0B60180E390E00E94F605A2FE9C
:100B200017C0A1FC03C088E790E002C088E590E010
:100B3000B6010CC08A2D867859F0A1FE02C08BE266
:100B400001C080E2A7FC8DE2B60190E00E94F605AC
:100B5000891438F4B60180E390E00E94F6059A9477
:100B6000F7CF8A94F301E80DF11D8081B60190E082
:100B70000E94F6058110F5CF222009F442CEB6017D
:100B800080E290E00E94F6052A94F6CFF601868175
:100B9000978102C08FEF9FEF2B96E2E10C94AC0699
:100BA000FC010590615070400110D8F78095909538
:100BB0008E0F9F1F0895FC0161507040019001103D
:100BC000D8F7809590958E0F9F1F0895DC01FC014A
:100BD000672F71917723E1F7329704C07C916D9371
:100BE00070836291AE17BF07C8F308950F931F93E8
:100BF000CF93DF93FB01238121FD03C08FEF9FEF94
:100C00002CC022FF16C046815781248135814217AE
:100C1000530744F4A081B1819D012F5F3F4F318381
:100C200020838C93268137812F5F3F4F3783268324
:100C300014C08B01EC01FB010084F185E02D0995C6
:100C4000892BE1F6D80116968D919C911797019604
:100C500017969C938E931697CE01DF91CF911F919B
:100C60000F910895FA01AA27283051F1203181F11E
:100C7000E8946F936E7F6E5F7F4F8F4F9F4FAF4FA4
:100C8000B1E03ED0B4E03CD0670F781F891F9A1FB7
:100C9000A11D680F791F8A1F911DA11D6A0F711D6B
:100CA000811D911DA11D20D009F468943F912AE077
:100CB000269F11243019305D3193DEF6CF0108955F
:100CC000462F4770405D4193B3E00FD0C9F7F6CF90
:100CD000462F4F70405D4A3318F0495D31FD405258
:100CE000419302D0A9F7EACFB4E0A69597958795EE
:100CF00077956795BA95C9F70097610571050895CD
:100D00009B01AC010A2E0694579547953795279578
:100D1000BA95C9F7620F731F841F951FA01D089510
:100D20002F923F924F925F926F927F928F929F92FB
:100D3000AF92BF92CF92DF92EF92FF920F931F93E9
:100D4000CF93DF93CDB7DEB7CA1BDB0B0FB6F8949A
:100D5000DEBF0FBECDBF09942A88398848885F84DA
:100D60006E847D848C849B84AA84B984C884DF804B
:100D7000EE80FD800C811B81AA81B981CE0FD11D2F
:100D80000FB6F894DEBF0FBECDBFED010895F89405
:020D9000FFCF93
:100D9200A0000500A0006400C80043004F004C2CD6
:080DA20000542C002C0A000093
:00000001FF
