S01700004763634170706C69636174696F6E312E737265635B
S11300000C9434000C9451000C9451000C94510045
S11300100C9451000C9451000C9451000C94510018
S11300200C9451000C9451000C9451000C947900E0
S11300300C9451000C9451000C9451000C945100F8
S11300400C9451000C9451000C9451000C945100E8
S11300500C9451000C9451000C9451000C945100D8
S11300600C9451000C94510011241FBECFEFD8E022
S1130070DEBFCDBF11E0A0E0B1E0E2E9F5E002C0EF
S113008005900D92A830B107D9F721E0A8E0B1E0BE
S113009001C01D92AD32B207E1F70E9426010C9413
S11300A0C7020C94000027E0829FC0011124FC01C8
S11300B0E65FFE4F1182108213821282158214822F
S11300C0168280E00895CF93C0E08C2F0E945300E5
S11300D0CF5FC530D1F781E792E090938900809398
S11300E088008CE08093810082E080936F00CF9140
S11300F008951F920F920FB60F9211242F933F93DE
S11301008F939F93AF93BF93EF93FF93EAE0F1E054
S11301102DE231E080819181892B91F0828193815C
S1130120009759F486818F5F868384819581009737
S113013039F001979383828303C001979383828369
S11301403796E217F30731F7FF91EF91BF91AF9123
S11301509F918F913F912F910F900FBE0F901F9001
S1130160189580E680937C00EAE7F0E08081866061
S113017080830895EAE7F0E0808180648083808151
S113018086FDFDCF8091790008951092C50083E328
S11301908093C4001092C00088E18093C10086E07F
S11301A08093C2000895E0ECF0E0908195FFFDCFCC
S11301B08093C6000895CF93DF93EC018881882350
S11301C031F021960E94D30089918111FBCFDF91F8
S11301D0CF910895CF93DF93CDB7DEB72A970FB6AB
S11301E0F894DEBF0FBECDBF0AE010E080E091E0DE
S11301F00E94DB000E94BA00682F70E0709309012E
S113020060930801072E000C880B990B0E9466016D
S113021020E030E040E85AE30E94CA0120E030E4E4
S11302204CE955E40E94CA010E942E01CB01B80199
S11302300E945F02CB01A801BE016F5F7F4F0E9445
S11302408702CE0101960E94DB00D0CF0E94C50038
S11302500E94B1000E9463000E94EA000E943501DE
S11302606894B1110C94C40108950E94A90188F006
S11302709F5798F0B92F9927B751B0F0E1F0660F66
S1130280771F881F991F1AF0BA95C9F714C0B130A7
S113029091F00E94C301B1E008950C94C301672F4B
S11302A0782F8827B85F39F0B93FCCF386957795D6
S11302B06795B395D9F73EF49095809570956195BF
S11302C07F4F8F4F9F4F0895E89409C097FB3EF4EA
S11302D090958095709561957F4F8F4F9F4F99238F
S11302E0A9F0F92F96E9BB279395F695879577950D
S11302F06795B795F111F8CFFAF4BB0F11F460FFCD
S11303001BC06F5F7F4F8F4F9F4F16C0882311F024
S113031096E911C0772321F09EE8872F762F05C038
S1130320662371F096E8862F70E060E02AF09A95D3
S1130330660F771F881FDAF7880F9695879597F9C8
S1130340089557FD9058440F551F59F05F3F71F0C1
S11303504795880F97FB991F61F09F3F79F0879528
S11303600895121613061406551FF2CF4695F1DFB1
S113037008C0161617061806991FF1CF8695710541
S1130380610508940895E894BB2766277727CB0175
S113039097F908950E94DD010C944E020E944002D8
S11303A038F00E94470220F0952311F00C94370294
S11303B00C943D0211240C94C4010E94A10170F319
S11303C0959FC1F3950F50E0551F629FF001729FF6
S11303D0BB27F00DB11D639FAA27F00DB11DAA1F05
S11303E0649F6627B00DA11D661F829F2227B00D52
S11303F0A11D621F739FB00DA11D621F839FA00DDD
S1130400611D221F749F3327A00D611D231F849F2C
S1130410600D211D822F762F6A2F11249F57504083
S11304209AF0F1F088234AF0EE0FFF1FBB1F661FFE
S1130430771F881F91505040A9F79E3F510580F0C7
S11304400C9437020C94C4015F3FE4F3983ED4F358
S1130450869577956795B795F795E7959F5FC1F76B
S1130460FE2B880F911D9695879597F9089597F916
S11304709F6780E870E060E008959FEF80EC089546
S113048000240A941616170618060906089500246F
S11304900A9412161306140605060895092E0394E9
S11304A0000C11F4882352F0BB0F40F4BF2B11F45D
S11304B060FF04C06F5F7F4F8F4F9F4F089597FB7E
S11304C0072E16F4009407D077FD09D00E9473021A
S11304D007FC05D03EF4909581959F4F0895709543
S11304E061957F4F0895AA1BBB1B51E107C0AA1F4A
S11304F0BB1FA617B70710F0A61BB70B881F991FC1
S11305005A95A9F780959095BC01CD01089545327F
S1130510510520F4423010F00C949202FB01108239
S1130520CB010895BB274A3031F4992322F4BDE26C
S1130530909581959F4F0C949E02BB27FB015527F4
S1130540AA27880F991FAA1FA41710F0A41B83952C
S11305505051B9F7A05DAA3308F0A95DA1930097A3
S113056079F7B111B1931192CB010C94B702DC016C
S1130570FC01672F71917723E1F7329704C07C91D6
S11305806D9370836291AE17BF07C8F30895F89412
S1050590FFCF97
S10B059254656D703A2000006D
S9030000FC
