S01700004763634170706C69636174696F6E312E737265635B
S11300000C9434000C9451000C9468020C9451002C
S11300100C9451000C9451000C9451000C94510018
S11300200C9451000C9451000C9451000C94FA005F
S11300300C9451000C9451000C9451000C945100F8
S11300400C9451020C9451000C9451000C945100E6
S11300500C9451000C9451000C9451000C945100D8
S11300600C9451000C94510011241FBECFEFD8E022
S1130070DEBFCDBF11E0A0E0B1E0E4E7FFE002C0E5
S113008005900D92A831B107D9F721E0A8E1B1E0BC
S113009001C01D92A534B207E1F70E94B1020C948D
S11300A0B8070C9400002091000130910101809167
S11300B002019091030182179307B4F42091000187
S11300C030910101809104019091050128173907AD
S11300D05CF45E9A2FEF83EC99E0215080409040CD
S11300E0E1F700C000005E9808955C9A80E48A9568
S11300F0F1F75C9808950F931F93CF93DF938C01CE
S11301008091220190912301892B81F0E2E2F1E0B8
S113011021E030E0822FE901A781B0852F5F3F4FB6
S11301203796AB2BB9F7853021F415C0C0E0D0E089
S113013080E0FE01EE0FFF1FEE0FFF1FEE0FFF1F0B
S1130140EC1BFD0BEE5DFE4F118300837383628312
S1130150558344831682DF91CF911F910F910895A7
S113016027E0829FC0011124FC01EE5DFE4F118245
S113017010821382128215821482168280E00895FE
S1130180EF92FF921F93CF93DF93C2E2D1E010E08E
S11301908E81882379F0E881F981309759F00995A7
S11301A08E8181508E838C819D81892B19F4812FBE
S11301B00E94B0001F5F2796153051F7DF91CF9151
S11301C01F91FF90EF900895CF93C0E08C2F0E9471
S11301D0B000CF5FC530D1F781E792E090938900FA
S11301E0809388008CE08093810082E080936F008C
S11301F0CF9108951F920F920FB60F9211242F934F
S11302003F938F939F93AF93BF93EF93FF93E2E258
S1130210F1E025E431E080819181892B91F08281A4
S11302209381009759F486818F5F868384819581B9
S1130230009739F001979383828303C001979383D6
S113024082833796E217F30731F7FF91EF91BF915D
S1130250AF919F918F913F912F910F900FBE0F906F
S11302601F901895549A559A569A579A089580E66D
S113027080937C0087E880937A00089581E68093D8
S11302807C0087E880937A000895EAE7F0E08081B3
S113029080648083808186FDFDCF809179000895FC
S11302A01092C50083E38093C40088E18093C10069
S11302B086E08093C2000895E0ECF0E0908195FF21
S11302C0FDCF8093C6000895CF93DF93EC0188811E
S11302D0882331F021960E945C0189918111FBCF22
S11302E0DF91CF910895CF93DF93CDB7DEB72A97EF
S11302F00FB6F894DEBF0FBECDBF0E94370181E177
S113030091E00E9464010E944501682F70E070939F
S11303101D0160931C01072E000C880B990B0E9491
S11303208F0320E030E040E85AE30E941B0420E001
S113033030E44CE955E40E941B040E945703CB01AE
S11303406AE070E00E948804CB0170931901609305
S113035018014AE050E0BE016F5F7F4F0E94B00475
S1130360CE0101960E94640184E191E00E9464013F
S11303702A960FB6F894DEBF0FBECDBFDF91CF91A2
S11303800895CF93DF93CDB7DEB72A970FB6F894CD
S1130390DEBF0FBECDBF0E943E018EE091E00E9401
S11303A064010E94450190E090931B0180931A011F
S11303B04AE050E0BE016F5F7F4F0E94B004CE015F
S11303C001960E94640184E191E00E9464012A96EE
S11303D00FB6F894DEBF0FBECDBFDF91CF91089565
S11303E020911A0130911B0180910801909109011B
S11303F082179307F4F42091000130910101809158
S1130400020190910301281739079CF05D9A5F98C7
S113041080910001909101010A97909301018093CA
S113042000018AE091E00E94640184E191E00E946D
S1130430640120911A0130911B0180910601909171
S1130440070128173907F4F42091000130910101C4
S11304508091040190910501821793079CF05F9AA3
S11304605D9880910001909101010A969093010199
S1130470809300018CE091E00E94640184E191E0AA
S11304800E9464010895E9E6F0E08081846080833D
S1130490E99A14BC83E085BD81E080936E00549A90
S11304A008951F920F920FB60F9211248F939F936A
S11304B08091200190912101939590932101809343
S11304C020019F918F910F900FBE0F901F90189550
S11304D01F920F920FB60F9211242F933F934F93B5
S11304E05F936F937F938F939F93AF93BF93EF9398
S11304F0FF934B9B06C016BC109221011092200161
S11305001FC086B56091200170912101680F711D93
S11305107093210160932001660F771F660F771F88
S113052080E090E00E948D032DEC3CEC48E652E420
S11305300E94E5020E945E0370931F0160931E01F6
S1130540FF91EF91BF91AF919F918F917F916F91A7
S11305505F914F913F912F910F900FBE0F901F907D
S113056018950E9432010E9443020E9450010E9489
S1130570E40044E650E060E070E080EF91E00E9427
S11305807B0048E057E060E070E083E791E00E9480
S11305907B0044E358E060E070E081EC91E00E946D
S11305A07B0042E350E060E070E083E590E00E946D
S11305B07B0044EF51E060E070E085E790E00E944A
S11305C07B0078940E94C000FDCF0E94F9020C9435
S11305D0E1030E94DA0358F00E94D30340F029F4A7
S11305E05F3F29F00C94CA0351110C9415040C9428
S11305F0D0030E94F20368F39923B1F3552391F3D6
S1130600951B550BBB27AA2762177307840738F07D
S11306109F5F5F4F220F331F441FAA1FA9F335D0DA
S11306200E2E3AF0E0E832D091505040E695001C8E
S1130630CAF72BD0FE2F29D0660F771F881FBB1F48
S1130640261737074807AB07B0E809F0BB0B802D26
S1130650BF01FF2793585F4F3AF09E3F510578F052
S11306600C94CA030C9415045F3FE4F3983ED4F34E
S1130670869577956795B795F7959F5FC9F7880F26
S1130680911D9695879597F90895E1E0660F771F78
S1130690881FBB1F621773078407BA0720F0621B09
S11306A0730B840BBA0BEE1F88F7E09508950E9434
S11306B05E036894B1110C94150408950E94FA0322
S11306C088F09F5798F0B92F9927B751B0F0E1F00F
S11306D0660F771F881F991F1AF0BA95C9F714C0BF
S11306E0B13091F00E941404B1E008950C94140404
S11306F0672F782F8827B85F39F0B93FCCF38695F8
S113070077956795B395D9F73EF490958095709554
S113071061957F4F8F4F9F4F0895E89409C097FBD1
S11307203EF490958095709561957F4F8F4F9F4FC4
S11307309923A9F0F92F96E9BB279395F695879508
S113074077956795B795F111F8CFFAF4BB0F11F4CB
S113075060FF1BC06F5F7F4F8F4F9F4F16C0882372
S113076011F096E911C0772321F09EE8872F762FA8
S113077005C0662371F096E8862F70E060E02AF0E9
S11307809A95660F771F881FDAF7880F96958795D5
S113079097F9089597F99F6780E870E060E00895FD
S11307A09FEF80EC089500240A9416161706180685
S11307B00906089500240A94121613061406050661
S11307C00895092E0394000C11F4882352F0BB0FF2
S11307D040F4BF2B11F460FF04C06F5F7F4F8F4F55
S11307E09F4F089557FD9058440F551F59F05F3F90
S11307F071F04795880F97FB991F61F09F3F79F03F
S113080087950895121613061406551FF2CF4695C0
S1130810F1DF08C0161617061806991FF1CF869542
S11308207105610508940895E894BB276627772726
S1130830CB0197F908950E942E040C94E1030E94C1
S1130840D30338F00E94DA0320F0952311F00C94BE
S1130850CA030C94D00311240C9415040E94F203CF
S113086070F3959FC1F3950F50E0551F629FF001FF
S1130870729FBB27F00DB11D639FAA27F00DB11D18
S1130880AA1F649F6627B00DA11D661F829F2227A1
S1130890B00DA11D621F739FB00DA11D621F839F28
S11308A0A00D611D221F749F3327A00D611D231FFE
S11308B0849F600D211D822F762F6A2F11249F574C
S11308C050409AF0F1F088234AF0EE0FFF1FBB1F4F
S11308D0661F771F881F91505040A9F79E3F51050E
S11308E080F00C94CA030C9415045F3FE4F3983E23
S11308F0D4F3869577956795B795F795E7959F5FB8
S1130900C1F7FE2B880F911D9695879597F9089549
S113091097FB072E16F4009407D077FD09D00E94A8
S11309209C0407FC05D03EF4909581959F4F089553
S1130930709561957F4F0895AA1BBB1B51E107C0B9
S1130940AA1FBB1FA617B70710F0A61BB70B881F5B
S1130950991F5A95A9F780959095BC01CD010895EA
S11309604532510520F4423010F00C94BB04FB01D5
S11309701082CB010895BB274A3031F4992322F425
S1130980BDE2909581959F4F0C94C704BB27FB0152
S11309905527AA27880F991FAA1FA41710F0A41B74
S11309A083955051B9F7A05DAA3308F0A95DA193CE
S11309B0009779F7B111B1931192CB010C94D7063A
S11309C0ABE0B0E0E6EEF4E00C9481076C017B014F
S11309D08A01FC0117821682838181FFCCC1CE017A
S11309E001963C01F6019381F70193FD859193FFF4
S11309F081917F01882309F4BAC1853239F493FDCA
S1130A00859193FF81917F01853229F4B60190E0AD
S1130A100E94E706E7CF912C212C312CFFE1F3153E
S1130A20D8F08B3279F038F4803279F08332A1F443
S1130A30232D20611DC08D3261F0803369F4232D94
S1130A40216016C0832D8260382EE32DE4603E2E93
S1130A502AC0F32DF8601DC037FC2DC020ED280FEF
S1130A602A3040F08E32B9F436FC81C1232D206443
S1130A70322E19C036FE06C08AE0989E200D11243D
S1130A80922E11C0EAE02E9E200D1124222EF32D69
S1130A90F0623F2E08C08C3621F4832D8068382EF6
S1130AA002C0883641F4F70193FD859193FF81914B
S1130AB07F018111B3CF982F9F7D9554933028F4F3
S1130AC00C5F1F4F9FE399830DC0833631F083374A
S1130AD071F0833509F059C021C0F8018081898300
S1130AE00E5F1F4F88248394912C530113C0280157
S1130AF0F2E04F0E511CF801A080B18036FE03C015
S1130B00692D70E002C06FEF7FEFC5010E94CC0633
S1130B104C018201F32DFF773F2E16C0280122E0FD
S1130B20420E511CF801A080B18036FE03C0692D2D
S1130B3070E002C06FEF7FEFC5010E94C1064C0157
S1130B40F32DF0683F2E820133FC1BC0822D90E010
S1130B5088169906B0F4B60180E290E00E94E70698
S1130B602A94F4CFF50137FC859137FE81915F011A
S1130B70B60190E00E94E70621102A9421E0821A2F
S1130B8091088114910471F7E8C0843611F0893614
S1130B9041F5F80137FE07C060817181828193813C
S1130BA00C5F1F4F08C060817181072E000C880BF9
S1130BB0990B0E5F1F4FF32DFF763F2E97FF09C051
S1130BC090958095709561957F4F8F4F9F4FF068FA
S1130BD03F2E2AE030E0A3010E942307882E8618C6
S1130BE045C0853731F4232D2F7EB22E2AE030E024
S1130BF025C0932D997FB92E8F36C1F018F488350E
S1130C0079F0B5C0803719F0883721F0B0C0E92FEA
S1130C10E061BE2EB4FE0DC0FB2DF460BF2E09C0F2
S1130C2034FE0AC0292F2660B22E06C028E030E028
S1130C3005C020E130E002C020E132E0F801B7FE57
S1130C4007C060817181828193810C5F1F4F06C050
S1130C506081718180E090E00E5F1F4FA3010E94CC
S1130C602307882E8618FB2DFF773F2E36FE0DC0F6
S1130C70232D2E7FA22E891458F434FE0BC032FC8F
S1130C8009C0832D8E7EA82E05C0B82CA32C03C0CA
S1130C90B82C01C0B92CA4FE0FC0FE01E80DF11D53
S1130CA08081803321F49A2D997EA92E09C0A2FE59
S1130CB006C0B394B39404C08A2D867809F0B39423
S1130CC0A3FC11C0A0FE06C0B21488F4280C922C18
S1130CD09B180EC0B21460F4B60180E290E00E944A
S1130CE0E706B394F7CFB21418F42B1802C0982C6B
S1130CF0212CA4FE10C0B60180E390E00E94E70618
S1130D00A2FE17C0A1FC03C088E790E002C088E5FA
S1130D1090E0B6010CC08A2D867859F0A1FE02C07D
S1130D208BE201C080E2A7FC8DE2B60190E00E9454
S1130D30E706891438F4B60180E390E00E94E706E0
S1130D409A94F7CF8A94F301E80DF11D8081B601DE
S1130D5090E00E94E7068110F5CF222009F442CEEC
S1130D60B60180E290E00E94E7062A94F6CFF601ED
S1130D708681978102C08FEF9FEF2B96E2E10C945E
S1130D809D07FC010590615070400110D8F78095D3
S1130D9090958E0F9F1F0895FC0161507040019043
S1130DA00110D8F7809590958E0F9F1F0895DC0150
S1130DB0FC01672F71917723E1F7329704C07C918E
S1130DC06D9370836291AE17BF07C8F308950F93B4
S1130DD01F93CF93DF93FB01238121FD03C08FEF8A
S1130DE09FEF2CC022FF16C0468157812481358194
S1130DF04217530744F4A081B1819D012F5F3F4FF7
S1130E00318320838C93268137812F5F3F4F378333
S1130E10268314C08B01EC01FB010084F185E02DD5
S1130E200995892BE1F6D80116968D919C91179717
S1130E30019617969C938E931697CE01DF91CF91CE
S1130E401F910F910895FA01AA27283051F12031FA
S1130E5081F1E8946F936E7F6E5F7F4F8F4F9F4F4A
S1130E60AF4FB1E03ED0B4E03CD0670F781F891F8C
S1130E709A1FA11D680F791F8A1F911DA11D6A0F5A
S1130E80711D811D911DA11D20D009F468943F910D
S1130E902AE0269F11243019305D3193DEF6CF010C
S1130EA00895462F4770405D4193B3E00FD0C9F7D2
S1130EB0F6CF462F4F70405D4A3318F0495D31FD3F
S1130EC04052419302D0A9F7EACFB4E0A695979592
S1130ED0879577956795BA95C9F700976105710568
S1130EE008959B01AC010A2E0694579547953795B2
S1130EF02795BA95C9F7620F731F841F951FA01D0C
S1130F0008952F923F924F925F926F927F928F92A9
S1130F109F92AF92BF92CF92DF92EF92FF920F9384
S1130F201F93CF93DF93CDB7DEB7CA1BDB0B0FB68E
S1130F30F894DEBF0FBECDBF09942A88398848884B
S1130F405F846E847D848C849B84AA84B984C884E1
S1130F50DF80EE80FD800C811B81AA81B981CE0FD8
S1130F60D11D0FB6F894DEBF0FBECDBFED010895BD
S1070F70F894FFCF1F
S1130F74A0000500A0006400C80043004F004C2CEE
S10B0F8400542C002C0A0000AB
S9030000FC
