S017000050726F6A6563742041726475696E6F2E7372656344
S11300000C9434000C943E000C943E000C943E007E
S11300100C943E000C943E000C943E000C943E0064
S11300200C943E000C943E000C943E000C943E0054
S11300300C943E000C943E000C943E000C943E0044
S11300400C943E000C943E000C943E000C943E0034
S11300500C943E000C943E000C943E000C943E0024
S11300600C943E000C943E0011241FBECFEFD8E048
S1130070DEBFCDBF0E9440000C946F000C940000C2
S1130080209A219A229A8AB180788AB98AB1807496
S11300908AB9289A2AE230E58EEF90E02150304068
S11300A080409040D9F7000028982A9A2AE230E547
S11300B08EEF90E02150304080409040D9F700000E
S11300C02A9883B1877029F3299A2FE936E881E0C9
S11300D0215030408040E1F700C00000DACFF894AE
S10500E0FFCF4C
S9030000FC
