S013000045696E6470726F647563742E7372656390
S11300000C9434000C9451000C94B8000C945100DE
S11300100C9451000C9451000C9451000C94510018
S11300200C9451000C9451000C9451000C94510008
S11300300C9451000C9451000C9451000C945100F8
S11300400C947E000C9451000C9451000C945100BB
S11300500C9451000C9451000C9451000C945100D8
S11300600C9451000C94510011241FBECFEFD8E022
S1130070DEBFCDBF11E0A0E0B1E0ECE4F5E002C0EA
S113008005900D92A630B107D9F721E0A6E0B1E0C2
S113009001C01D92A930B207E1F70E942D010C9412
S11300A0A4020C94000080E18AB987EF8AB98FEF2B
S11300B084B9089514BC85B5836085BD81E08093BF
S11300C06E00089584E08093690082E08DBB0895FA
S11300D06091070170910801660F771F660F771F03
S11300E080E090E00E94D6012DEC3CEC48E652E41E
S11300F00E9435010E94A701CB0108951F920F921F
S11301000FB60F9211248F939F93809107019091C2
S11301100801939590930801809307019F918F9113
S11301200F900FBE0F901F901895789481E08093E4
S113013006015C9A80E48A95F1F71BB88091070167
S1130140909108010E9468009C0181E040910001A7
S113015050910101241735070CF480E091E026301A
S113016031050CF090E0982B81E0892790E0089508
S11301701F920F920FB60F9211242F938F939F9378
S11301804B9B06C016BC10920801109207010BC0CD
S113019026B58091070190910801820F911D9093DB
S11301A00801809307019F918F912F910F900FBEAB
S11301B00F901F9018951092C50083E38093C4009C
S11301C01092C00088E08093C10086E08093C20052
S11301D00895E0ECF0E0908195FFFDCF8093C60098
S11301E00895CF93DF93EC018881882331F0219621
S11301F00E94E90089918111FBCFDF91CF9108958D
S1130200CF93DF93CDB7DEB728970FB6F894DEBF50
S11302100FBECDBF0E94DB000E94950082E091E0FA
S11302200E94F10080910701909108010E946800EA
S11302304AE050E0BE016F5F7F4F0E946402CE012E
S113024001960E94F1002FEF8BE792E92150804044
S11302509040E1F700C00000DFCF0E9453000E94ED
S11302605A000E9462000E9400010E9449010C94FD
S11302702A020E94230258F00E941C0240F029F432
S11302805F3F29F00C94130251110C945E020C94FC
S113029019020E943B0268F39923B1F3552391F3A9
S11302A0951B550BBB27AA2762177307840738F0E1
S11302B09F5F5F4F220F331F441FAA1FA9F335D03E
S11302C00E2E3AF0E0E832D091505040E695001CF2
S11302D0CAF72BD0FE2F29D0660F771F881FBB1FAC
S11302E0261737074807AB07B0E809F0BB0B802D8A
S11302F0BF01FF2793585F4F3AF09E3F510578F0B6
S11303000C9413020C945E025F3FE4F3983ED4F322
S1130310869577956795B795F7959F5FC9F7880F89
S1130320911D9695879597F90895E1E0660F771FDB
S1130330881FBB1F621773078407BA0720F0621B6C
S1130340730B840BBA0BEE1F88F7E09508950E9497
S1130350430288F09F5798F0B92F9927B751B0F00E
S1130360E1F0660F771F881F991F1AF0BA95C9F735
S113037014C0B13091F00E945D02B1E008950C9474
S11303805D02672F782F8827B85F39F0B93FCCF327
S1130390869577956795B395D9F73EF490958095B2
S11303A0709561957F4F8F4F9F4F0895E89409C0D2
S11303B097FB3EF490958095709561957F4F8F4F94
S11303C09F4F9923A9F0F92F96E9BB279395F695AA
S11303D0879577956795B795F111F8CFFAF4BB0F28
S11303E011F460FF1BC06F5F7F4F8F4F9F4F16C08C
S11303F0882311F096E911C0772321F09EE8872F16
S1130400762F05C0662371F096E8862F70E060E0D1
S11304102AF09A95660F771F881FDAF7880F96954A
S1130420879597F9089597F99F6780E870E060E0F1
S113043008959FEF80EC089500240A941616170679
S113044018060906089500240A94121613061406C1
S113045005060895092E0394000C11F4882352F024
S1130460BB0F40F4BF2B11F460FF04C06F5F7F4FDC
S11304708F4F9F4F089557FD9058440F551F59F0C3
S11304805F3F71F04795880F97FB991F61F09F3F7D
S113049079F087950895121613061406551FF2CFA6
S11304A04695F1DF08C0161617061806991FF1CFF6
S11304B086957105610508940895E894BB2766271D
S11304C07727CB0197F908954532510520F442303E
S11304D010F00C946F02FB011082CB010895BB272E
S11304E04A3031F4992322F4BDE2909581959F4FCF
S11304F00C947B02BB27FB015527AA27880F991F61
S1130500AA1FA41710F0A41B83955051B9F7A05D3E
S1130510AA3308F0A95DA193009779F7B111B193BB
S11305201192CB010C949402DC01FC01672F7191B0
S11305307723E1F7329704C07C916D9370836291C5
S10F0540AE17BF07C8F30895F894FFCF6E
S109054C7800442C0000BD
S9030000FC
