:100000000C9434000C9451000C949A000C94510000
:100010000C9451000C9451000C9451000C9451001C
:100020000C9451000C9451000C9451000C9451000C
:100030000C9451000C9451000C9451000C945100FC
:100040000C9451000C9451000C9451000C945100EC
:100050000C9451000C9451000C9451000C945100DC
:100060000C9451000C94510011241FBECFEFD8E026
:10007000DEBFCDBF11E0A0E0B1E0EAE0F5E002C0F4
:1000800005900D92A630B107D9F721E0A6E0B1E0C6
:1000900001C01D92A930B207E1F70E940C010C9437
:1000A00083020C94000080E18AB987EF8AB98FEF50
:1000B00084B9089514BC15BC089584E08093690048
:1000C00082E08DBB089560910701709108017695DB
:1000D000679580E090E00E94B50120E030E048EEB6
:1000E00050E40E9414010E948601CB010895789487
:1000F00081E0809306015C9A80E48A95F1F71BB851
:1001000080910701909108010E9463009C0181E0A9
:100110004091000150910101241735070CF480E053
:1001200091E0263031050CF090E0982B81E0892792
:1001300090E008951F920F920FB60F9211248F93A3
:100140009F9380910601813039F416BC85B5826099
:1001500085BD1092060107C015BC86B590E090934E
:100160000801809307019F918F910F900FBE0F9010
:100170001F9018951092C50083E38093C4001092DD
:10018000C00088E08093C10086E08093C20008959B
:10019000E0ECF0E0908195FFFDCF8093C6000895DC
:1001A000CF93DF93EC018881882331F021960E9460
:1001B000C80089918111FBCFDF91CF910895CF9332
:1001C000DF93CDB7DEB728970FB6F894DEBF0FBE2A
:1001D000CDBF0E94BA000E94770082E091E00E94A9
:1001E000D00080910701909108010E9463004AE0CD
:1001F00050E0BE016F5F7F4F0E944302CE01019627
:100200000E94D0002FEF8BE792E921508040904070
:10021000E1F700C00000DFCF0E9453000E945A00A7
:100220000E945D000E94DF000E9428010C940902D8
:100230000E94020258F00E94FB0140F029F45F3F47
:1002400029F00C94F20151110C943D020C94F80128
:100250000E941A0268F39923B1F3552391F3951B79
:10026000550BBB27AA2762177307840738F09F5FD7
:100270005F4F220F331F441FAA1FA9F335D00E2E44
:100280003AF0E0E832D091505040E695001CCAF7B1
:100290002BD0FE2F29D0660F771F881FBB1F261774
:1002A00037074807AB07B0E809F0BB0B802DBF014B
:1002B000FF2793585F4F3AF09E3F510578F00C941A
:1002C000F2010C943D025F3FE4F3983ED4F386952F
:1002D00077956795B795F7959F5FC9F7880F911D3B
:1002E0009695879597F90895E1E0660F771F881F27
:1002F000BB1F621773078407BA0720F0621B730BDA
:10030000840BBA0BEE1F88F7E09508950E94220235
:1003100088F09F5798F0B92F9927B751B0F0E1F0C6
:10032000660F771F881F991F1AF0BA95C9F714C076
:10033000B13091F00E943C02B1E008950C943C026F
:10034000672F782F8827B85F39F0B93FCCF38695AF
:1003500077956795B395D9F73EF49095809570950C
:1003600061957F4F8F4F9F4F0895E89409C097FB89
:100370003EF490958095709561957F4F8F4F9F4F7C
:100380009923A9F0F92F96E9BB279395F6958795C0
:1003900077956795B795F111F8CFFAF4BB0F11F483
:1003A00060FF1BC06F5F7F4F8F4F9F4F16C088232A
:1003B00011F096E911C0772321F09EE8872F762F60
:1003C00005C0662371F096E8862F70E060E02AF0A1
:1003D0009A95660F771F881FDAF7880F969587958D
:1003E00097F9089597F99F6780E870E060E00895B5
:1003F0009FEF80EC089500240A941616170618063D
:100400000906089500240A94121613061406050618
:100410000895092E0394000C11F4882352F0BB0FA9
:1004200040F4BF2B11F460FF04C06F5F7F4F8F4F0C
:100430009F4F089557FD9058440F551F59F05F3F47
:1004400071F04795880F97FB991F61F09F3F79F0F6
:1004500087950895121613061406551FF2CF469578
:10046000F1DF08C0161617061806991FF1CF8695FA
:100470007105610508940895E894BB2766277727DE
:10048000CB0197F908954532510520F4423010F020
:100490000C944E02FB011082CB010895BB274A3019
:1004A00031F4992322F4BDE2909581959F4F0C94ED
:1004B0005A02BB27FB015527AA27880F991FAA1F9D
:1004C000A41710F0A41B83955051B9F7A05DAA336F
:1004D00008F0A95DA193009779F7B111B19311923A
:1004E000CB010C947302DC01FC01672F719177231F
:1004F000E1F7329704C07C916D9370836291AE17DF
:0A050000BF07C8F30895F894FFCF79
:06050A007800442C000003
:00000001FF
