:100000000C9434000C9451000C946D000C9451002D
:100010000C9451000C9451000C9451000C9451001C
:100020000C9451000C9451000C9451000C9451000C
:100030000C9451000C9451000C9451000C945100FC
:100040000C9451000C9451000C9451000C945100EC
:100050000C9451000C9451000C9451000C945100DC
:100060000C9451000C94510011241FBECFEFD8E026
:10007000DEBFCDBF11E0A0E0B1E0E2EAF2E002C0F5
:1000800005900D92A431B107D9F721E0A4E1B1E0C8
:1000900001C01D92A731B207E1F70E94F3000C9452
:1000A0004F010C94000080E18AB987EF8AB9089566
:1000B0001092800010928100089584E0809369007E
:1000C00082E08DBB0895789481E0809314015C9A5E
:1000D00080E48A95F1F71BB808951F920F920FB62E
:1000E0000F9211248F939F93EF93FF9380911401AC
:1000F000813061F41092850010928400E1E8F0E014
:10010000808181608083109214010AC01092810066
:100110008091840090918500909316018093150141
:10012000FF91EF919F918F910F900FBE0F901F90B5
:1001300018951092C50083E38093C4001092C0000C
:1001400088E08093C10086E08093C2000895E0ECCF
:10015000F0E0908195FFFDCF8093C6000895CF9386
:10016000DF93EC018881882331F021960E94A7005B
:1001700089918111FBCFDF91CF910895CF93DF93C8
:10018000CDB7DEB728970FB6F894DEBF0FBECDBF50
:100190000E94990000EA13E00E94630080E091E071
:1001A0000E94AF0080911501909116018091150178
:1001B00090911601B8010E94FB00CB014AE050E08B
:1001C000BE016F5F7F4F0E940F01CE0101960E941A
:1001D000AF002FEF8BE792E9215080409040E1F78C
:1001E00000C00000D9CF0E9453000E9458000E9416
:1001F0005D000E94BE00AA1BBB1B51E107C0AA1FE5
:10020000BB1FA617B70710F0A61BB70B881F991FB7
:100210005A95A9F780959095BC01CD010895453276
:10022000510520F4423010F00C941A01FB011082A9
:10023000CB010895BB274A3031F4992322F4BDE263
:10024000909581959F4F0C942601BB27FB01552764
:10025000AA27880F991FAA1FA41710F0A41B839523
:100260005051B9F7A05DAA3308F0A95DA19300979A
:1002700079F7B111B1931192CB010C943F01DC01DC
:10028000FC01672F71917723E1F7329704C07C91CD
:100290006D9370836291AE17BF07C8F30895F89409
:0202A000FFCF8E
:1002A200205468652064697374616E6365206973A4
:0402B2003A200000EE
:00000001FF
