:100000000C9434000C9451000C9479000C94510021
:100010000C9451000C9451000C9451000C9451001C
:100020000C9451000C9451000C9451000C9451000C
:100030000C9451000C9451000C9451000C945100FC
:100040000C9451000C9451000C9451000C945100EC
:100050000C9451000C9451000C9451000C945100DC
:100060000C9451000C94510011241FBECFEFD8E026
:10007000DEBFCDBF11E0A0E0B1E0E4E8F5E002C0F2
:1000800005900D92AA31B107D9F721E0AAE1B1E0BC
:1000900001C01D92AF31B207E1F70E9449010C94F3
:1000A000C0020C94000080E18AB987EF8AB98FEF13
:1000B00084B908951092800010928100089584E020
:1000C0008093690082E08DBB089560911D0170915D
:1000D0001E017695679580E090E00E94F2012DEC7C
:1000E0003CEC48E652E40E9451010E94C301CB015E
:1000F00008951F920F920FB60F9211248F939F9322
:10010000EF93FF9380911C01813061F41092850080
:1001100010928400E1E8F0E0808182608083109298
:100120001C010AC01092810080918400909185008A
:1001300090931E0180931D01FF91EF919F918F91EC
:100140000F900FBE0F901F9018951092C50083E37B
:100150008093C4001092C00088E08093C10086E0C4
:100160008093C2000895E0ECF0E0908195FFFDCF10
:100170008093C6000895CF93DF93EC018881882394
:1001800031F021960E94B30089918111FBCFDF915C
:10019000CF910895299A2FEF83EC99E02150804068
:1001A0009040E1F700C0000029982FEF83EC99E020
:1001B000215080409040E1F700C00000EBCF8091DB
:1001C0001A0190911B01009721F42A9A28980E9405
:1001D000CA00019721F42A98289A0E94CA0008951B
:1001E000789481E080931C015C9A80E48A95F1F711
:1001F0001BB880911D0190911E010E94650021E0B5
:100200004091000150910101841795070CF420E002
:1002100021110BC021E006970CF020E0211105C050
:100220000E94DF0081E090E0089580E090E0089572
:10023000CF93DF93CDB7DEB728970FB6F894DEBF24
:100240000FBECDBF0E94A5000E94F00086E091E0A5
:100250000E94BB0080911D0190911E010E946500CB
:100260004AE050E0BE016F5F7F4F0E948002CE01E6
:1002700001960E94BB0082E091E00E94BB002FEF3C
:100280008BE792E9215080409040E1F700C00000E8
:10029000DBCF0E9453000E945A000E945F000E9420
:1002A00018010E9465010C9446020E943F0258F01A
:1002B0000E94380240F029F45F3F29F00C942F028D
:1002C00051110C947A020C9435020E94570268F383
:1002D0009923B1F3552391F3951B550BBB27AA27FF
:1002E00062177307840738F09F5F5F4F220F331F39
:1002F000441FAA1FA9F335D00E2E3AF0E0E832D001
:1003000091505040E695001CCAF72BD0FE2F29D003
:10031000660F771F881FBB1F261737074807AB07D5
:10032000B0E809F0BB0B802DBF01FF2793585F4F4A
:100330003AF09E3F510578F00C942F020C947A020B
:100340005F3FE4F3983ED4F3869577956795B7952C
:10035000F7959F5FC9F7880F911D9695879597F937
:100360000895E1E0660F771F881FBB1F62177307B0
:100370008407BA0720F0621B730B840BBA0BEE1FC5
:1003800088F7E09508950E945F0288F09F5798F0E3
:10039000B92F9927B751B0F0E1F0660F771F881F8A
:1003A000991F1AF0BA95C9F714C0B13091F00E94A4
:1003B0007902B1E008950C947902672F782F88278D
:1003C000B85F39F0B93FCCF3869577956795B395CB
:1003D000D9F73EF490958095709561957F4F8F4F3A
:1003E0009F4F0895E89409C097FB3EF4909580953F
:1003F000709561957F4F8F4F9F4F9923A9F0F92FEB
:1004000096E9BB279395F695879577956795B79568
:10041000F111F8CFFAF4BB0F11F460FF1BC06F5F4E
:100420007F4F8F4F9F4F16C0882311F096E911C060
:10043000772321F09EE8872F762F05C0662371F081
:1004400096E8862F70E060E02AF09A95660F771F95
:10045000881FDAF7880F9695879597F9089597F989
:100460009F6780E870E060E008959FEF80EC08955A
:1004700000240A9416161706180609060895002483
:100480000A9412161306140605060895092E0394FD
:10049000000C11F4882352F0BB0F40F4BF2B11F471
:1004A00060FF04C06F5F7F4F8F4F9F4F089557FDD0
:1004B0009058440F551F59F05F3F71F04795880FD2
:1004C00097FB991F61F09F3F79F087950895121669
:1004D00013061406551FF2CF4695F1DF08C0161615
:1004E00017061806991FF1CF8695710561050894C6
:1004F0000895E894BB2766277727CB0197F90895DD
:100500004532510520F4423010F00C948B02FB016F
:100510001082CB010895BB274A3031F4992322F48D
:10052000BDE2909581959F4F0C949702BB27FB01EC
:100530005527AA27880F991FAA1FA41710F0A41BDC
:1005400083955051B9F7A05DAA3308F0A95DA19336
:10055000009779F7B111B1931192CB010C94B002CD
:10056000DC01FC01672F71917723E1F7329704C01A
:100570007C916D9370836291AE17BF07C8F30895A5
:04058000F894FFCF1D
:10058400780020636D002054686520646973746189
:0A0594006E63652069733A200000D1
:00000001FF
