:100000000C9434000C9451000C9453000C94510047
:100010000C9451000C9451000C9451000C9451001C
:100020000C9451000C9451000C9451000C9451000C
:100030000C9451000C9451000C9451000C945100FC
:100040000C9451000C9451000C9451000C945100EC
:100050000C9451000C9451000C9451000C945100DC
:100060000C9451000C94510011241FBECFEFD8E026
:10007000DEBFCDBF11E0A0E0B1E0E0E7F1E002C0FB
:1000800005900D92A231B107D9F721E0A2E1B1E0CC
:1000900001C01D92A531B207E1F70E94B4000C9493
:1000A000B6000C9400001F920F920FB60F9211240D
:1000B0008F939F93EF93FF9380911201813061F4AE
:1000C0001092850010928400E1E8F0E08081816068
:1000D0008083109212010AC01092810080918400E6
:1000E000909185009093140180931301FF91EF91FB
:1000F0009F918F910F900FBE0F901F9018951092A7
:10010000C50083E38093C4001092C00088E0809310
:10011000C10086E08093C2000895E0ECF0E0908199
:1001200095FFFDCF8093C6000895CF93DF93EC0138
:100130008881882331F021960E948D008991811158
:10014000FBCFDF91CF9108950E947F0080E091E086
:100150000E9495002FEF83E294EF21508040904061
:10016000E1F700C00000F2CF0E94A400F894FFCF96
:100170005468652064697374616E63652069733ABD
:0201800000007D
:00000001FF
