S013000045696E6470726F647563742E7372656390
S11300000C9434000C9451000C9485000C94510011
S11300100C9451000C9451000C9451000C94510018
S11300200C9451000C9451000C9451000C94510008
S11300300C9451000C9451000C9451000C945100F8
S11300400C9468000C9451000C9451000C945100D1
S11300500C9451000C9451000C9451000C945100D8
S11300600C9451000C94510011241FBECFEFD8E022
S1130070DEBFCDBF11E0A0E0B1E0EAEFF2E002C0E4
S113008005900D92A830B107D9F721E0A8E0B1E0BE
S113009001C01D92AF30B207E1F70E9426010C9413
S11300A07B010C94000080E18AB987EF8AB98FEF55
S11300B084B90895E9E6F0E0808184608083E99A58
S11300C014BC83E085BD81E080936E00549A08954A
S11300D01F920F920FB60F9211248F939F938091CA
S11300E00D0190910E01939590930E0180930D0153
S11300F09F918F910F900FBE0F901F9018955C9A4F
S113010080E48A95F1F75C9808951F920F920FB6D8
S11301100F9211242F933F936F937F938F939F9309
S1130120AF93BF934B9B06C016BC10920B01109269
S11301300A011DC086B520910A0130910B01280FD8
S1130140311D30930B0120930A01220F331F220F1C
S1130150331FAFE9B6E40E942C01929582958F700B
S113016089279F7089279093090180930801BF9183
S1130170AF919F918F917F916F913F912F910F90AC
S11301800FBE0F901F9018951092C50083E38093C3
S1130190C4001092C00088E08093C10086E0809380
S11301A0C2000895E0ECF0E0908195FFFDCF8093CC
S11301B0C6000895CF93DF93EC018881882331F042
S11301C021960E94D20089918111FBCFDF91CF91BA
S11301D00895CF93DF93CDB7DEB728970FB6F89481
S11301E0DEBF0FBECDBF0E94C4000E947F0084E02A
S11301F091E00E94DA0020910A0130910B01220F54
S1130200331F220F331FAFE9B6E40E942C014AE0EA
S113021050E0BE016F5F7F4F929582958F70892762
S11302209F7089270E943B01CE0101960E94DA004B
S113023080E091E00E94DA002FEF8BE792E92150F1
S113024080409040E1F700C00000CFCF0E945300EF
S11302500E945A000E94E900A29FB001B39FC0010E
S1130260A39F700D811D1124911DB29F700D811DDE
S11302701124911D08954532510520F4423010F0A7
S11302800C944601FB011082CB010895BB274A3030
S113029031F4992322F4BDE2909581959F4F0C94FB
S11302A05201BB27FB015527AA27880F991FAA1FB4
S11302B0A41710F0A41B83955051B9F7A05DAA337D
S11302C008F0A95DA193009779F7B111B193119248
S11302D0CB010C946B01DC01FC01672F7191772336
S11302E0E1F7329704C07C916D9370836291AE17ED
S10D02F0BF07C8F30895F894FFCF88
S10B02FA20636D00442C000098
S9030000FC
